:100000000C942A000C9447000C9447000C94470071
:100010000C9447000C9447000C9447000C94470044
:100020000C9447000C9447000C9447000C94470034
:100030000C9447000C9447000C9447000C94470024
:100040000C9447000C9447000C9447000C94470014
:100050000C94470011241FBECFE5D8E0DEBFCDBF12
:1000600010E0A0E6B0E0E4E4F4E002C005900D92F8
:10007000AA37B107D9F720E0AAE7B0E001C01D9286
:10008000AC37B207E1F70E9409020C9420020C94ED
:100090000000413069F4E82FF0E0218181E090E038
:1000A00002C0880F991F6A95E2F7822B8183089519
:1000B00041110DC0E82FF0E0218181E090E002C005
:1000C000880F991F6A95E2F78095822381830895AE
:1000D000E82FF0E062830895E82FF0E0828121E0CC
:1000E00030E002C0220F331F6A95E2F7282B2283EB
:1000F0000895E82FF0E0828121E030E002C0220F75
:10010000331F6A95E2F7209528232283089530EF64
:100110002FEF9FEE6FED5FEB4FE734BB25BB85B351
:100120008F7085BB000083B38F7080937A008F300F
:10013000B1F7E7E8F3E13197F1F700C0000083B3CE
:100140008F7080937A008F30A1F3EFE0F7E2319760
:10015000F1F700C0000083B38F7080937A008F3076
:1001600041F395BB000083B38F7080937A008F308A
:1001700019F010927B0024C065BB000083B38F7020
:1001800080937A008F3021F081E080937B0018C04B
:1001900055BB000083B38F7080937A008F3021F0BD
:1001A00082E080937B000CC045BB000083B38F705E
:1001B00080937A008F3009F4B0CF83E080937B0086
:1001C00080917A008E3059F4E0917B00F0E0EE0FE0
:1001D000FF1FEE0FFF1FE05AFF4F808108958D3003
:1001E00059F4E0917B00F0E0EE0FFF1FEE0FFF1FD0
:1001F000E05AFF4F818108958B3059F4E0917B00E4
:10020000F0E0EE0FFF1FEE0FFF1FE05AFF4F82815D
:100210000895E0917B00F0E0EE0FFF1FEE0FFF1F4F
:10022000E05AFF4F83810895CF93C82F682F6295BE
:100230006F7089E30E94680065E089E30E9479009D
:1002400064E089E30E946C0089EF90E00197F1F788
:1002500000C0000064E089E30E94790087EA91E62B
:100260000197F1F700C000006C2F6F7089E30E94C6
:10027000680065E089E30E94790064E089E30E94F8
:100280006C0089EF90E00197F1F700C0000064E096
:1002900089E30E94790087EA91E60197F1F700C0AF
:1002A0000000CF91089541E064E089E30E94490095
:1002B00041E065E089E30E94490041E060E089E3B4
:1002C0000E94490041E061E089E30E94490041E069
:1002D00062E089E30E94490041E063E089E30E9413
:1002E000490064E089E30E94790083E30E941401DD
:1002F00082E30E94140188E20E9414018EE00E94B1
:10030000140181E00E9414012FE38DE093E021505D
:1003100080409040E1F700C0000086E00E94140198
:100320000895CF93C82F682F62956F7089E30E945C
:10033000680065E089E30E946C0064E089E30E9444
:100340006C0089EF90E00197F1F700C0000064E0D5
:1003500089E30E94790087EA91E60197F1F700C0EE
:1003600000006C2F6F7089E30E94680065E089E3EC
:100370000E946C0064E089E30E946C0089EF90E0C9
:100380000197F1F700C0000064E089E30E94790062
:1003900087EA91E60197F1F700C00000CF91089538
:1003A0000F931F93CF93FC018081882359F08F0115
:1003B000C0E00E949101CF5FF801EC0FF11D808138
:1003C0008111F7CFCF911F910F910895CF93DF93B4
:1003D00000D000D0CDB7DEB790E8998390EC9A8337
:1003E00094E99B8394ED9C83FE01E60FF11D8150FF
:1003F0009081890F0E94140187EA91E60197F1F735
:1004000000C000000F900F900F900F90DF91CF91E0
:1004100008950E94530161E081E00E94E60180E7B7
:1004200090E00E94D00162E081E00E94E6010E941B
:1004300087000E94910162E081E00E94E601F7CF0F
:04044000F894FFCF5E
:100444003738392F3435362A3132332D20303D2B8D
:0A0454007072657373206B65790008
:00000001FF
