:100000000C942A000C9447000C946E000C949500FC
:100010000C9447000C94D3030C9447000C944700B5
:100020000C9447000C94A9030C9447000C947F0394
:100030000C9447000C9447000C9447000C94470024
:100040000C9447000C9447000C9447000C94470014
:100050000C94470011241FBECFE5D8E0DEBFCDBF12
:1000600011E0A0E6B0E0EEEFF7E002C005900D92DF
:10007000A230B107D9F721E0A2E0B1E001C01D92A2
:10008000A031B207E1F70E947A030C94FD030C94AF
:10009000000008958EBB1FBA6DBBE29AE19AE19908
:1000A000FECF08950F931F93CF93DF93FB016081E1
:1000B000662379F08F01D82FC82F8C2F0E944A0019
:1000C000CF5F9C2F9D1BF801E90FF11D608161112D
:1000D000F4CFDF91CF911F910F9108951F920F924E
:1000E0000FB60F9211242F933F934F935F936F930B
:1000F0007F938F939F93AF93BF93EF93FF93E09181
:100100000401F09105010995FF91EF91BF91AF9125
:100110009F918F917F916F915F914F913F912F911F
:100120000F900FBE0F901F9018951F920F920FB651
:100130000F9211242F933F934F935F936F937F936D
:100140008F939F93AF93BF93EF93FF93E09106013B
:10015000F09107010995FF91EF91BF91AF919F91A8
:100160008F917F916F915F914F913F912F910F9060
:100170000FBE0F901F901895413069F4E82FF0E002
:10018000218181E090E002C0880F991F6A95E2F713
:10019000822B8183089541110DC0E82FF0E0218169
:1001A00081E090E002C0880F991F6A95E2F7809580
:1001B000822381830895E82FF0E062830895E82F79
:1001C000F0E0828121E030E002C0220F331F6A9507
:1001D000E2F7282B22830895E82FF0E0828121E0C6
:1001E00030E002C0220F331F6A95E2F720952823E2
:1001F0002283089530EF2FEF9FEE6FED5FEB4FE717
:1002000034BB25BB85B38F7085BB000083B38F7073
:1002100080930E018F30B1F7E7E8F3E13197F1F702
:1002200000C0000083B38F7080930E018F30A1F364
:10023000EFE0F7E23197F1F700C0000083B38F7071
:1002400080930E018F3041F395BB000083B38F7014
:1002500080930E018F3019F010920F0124C065BBFE
:10026000000083B38F7080930E018F3021F081E006
:1002700080930F0118C055BB000083B38F7080932B
:100280000E018F3021F082E080930F010CC045BB3E
:10029000000083B38F7080930E018F3009F4B0CFCC
:1002A00083E080930F0180910E018E3059F4E0912C
:1002B0000F01F0E0EE0FFF1FEE0FFF1FE05AFF4FA0
:1002C000808108958D3059F4E0910F01F0E0EE0F38
:1002D000FF1FEE0FFF1FE05AFF4F818108958B3003
:1002E00059F4E0910F01F0E0EE0FFF1FEE0FFF1F3A
:1002F000E05AFF4F82810895E0910F01F0E0EE0F88
:10030000FF1FEE0FFF1FE05AFF4F83810895CF9329
:10031000C82F682F62956F7089E30E94DB0065E04B
:1003200089E30E94EC0064E089E30E94DF0089EF2A
:1003300090E00197F1F700C0000064E089E30E94BB
:10034000EC0087EA91E60197F1F700C000006C2FFE
:100350006F7089E30E94DB0065E089E30E94EC0096
:1003600064E089E30E94DF0089EF90E00197F1F7F4
:1003700000C0000064E089E30E94EC0087EA91E697
:100380000197F1F700C00000CF91089541E064E0CB
:1003900089E30E94BC0041E065E089E30E94BC0063
:1003A00041E060E089E30E94BC0041E061E089E354
:1003B0000E94BC0041E062E089E30E94BC0041E091
:1003C00063E089E30E94BC0064E089E30E94EC00E2
:1003D00083E30E94870182E30E94870188E20E94F2
:1003E00087018CE00E94870181E00E9487012FE352
:1003F0008DE093E0215080409040E1F700C0000084
:1004000086E00E9487010895CF93C82F682F6295D8
:100410006F7089E30E94DB0065E089E30E94DF00E2
:1004200064E089E30E94DF0089EF90E00197F1F733
:1004300000C0000064E089E30E94EC0087EA91E6D6
:100440000197F1F700C000006C2F6F7089E30E94E4
:10045000DB0065E089E30E94DF0064E089E30E943D
:10046000DF0089EF90E00197F1F700C0000064E041
:1004700089E30E94EC0087EA91E60197F1F700C05A
:100480000000CF9108950F931F93CF93FC018081BB
:10049000882359F08F01C0E00E940402CF5FF80169
:1004A000EC0FF11D80818111F7CFCF911F910F913A
:1004B0000895CF93DF9300D000D0CDB7DEB790E89A
:1004C000998390EC9A8394E99B8394ED9C83FE013D
:1004D000E60FF11D81509081890F0E94870187EA04
:1004E00091E60197F1F700C000000F900F900F9078
:1004F0000F90DF91CF91089541E0FC0161818081EF
:100500000E94BC000895FC01618180810E94DF008F
:100510000895FC01618180810E94EC0008950E9491
:10052000C60182E790E00E947C0280E790E00E9492
:100530007C020E944900089581E00E94870162E0E8
:1005400081E00E94590284E790E00E9443020E94E9
:10055000FA00813349F488E890E00E94430282E780
:1005600090E00E9489020895823349F482E790E086
:100570000E94830284E990E00E94430208958FE97B
:1005800090E00E944302089561E081E00E945902D8
:1005900084E790E00E9443020E94FA00813369F4EC
:1005A00080E790E00E94890261E081E00E945902A8
:1005B00088E890E00E94430213C0823369F480E728
:1005C00090E00E94830261E081E00E94590284E988
:1005D00090E00E94430204C061E081E00E94590261
:1005E0008FE990E00E9443020895EF92FF920F93EB
:1005F0001F93CF93DF9300D000D000D0CDB7DEB7EC
:100600001C821D821E826F8170E080E00E94520079
:100610008E010F5F1F4F7E0185E0E80EF11C0E94E6
:10062000FA00F80181938F01EE15FF05C1F789816A
:10063000803349F48A81803341F481E09B81903397
:1006400029F080E003C080E001C080E026960FB66C
:10065000F894DEBF0FBECDBFDF91CF911F910F91F8
:10066000FF90EF900895CF9361E081E00E945902DE
:100670008EEA90E00E9443020E94F502813061F010
:1006800081E00E94870161E081E00E9459028DEBC8
:1006900090E00E9443022CC061E081E00E94590278
:1006A00081ED90E00E9443020E94FA00C82F62E0B0
:1006B00081E00E9459028C2F0E94040262E081E0D6
:1006C0000E945902C13339F483EE90E00E94430244
:1006D0000E949C020DC0C23339F482EF90E00E9468
:1006E00043020E94C40204C08FE990E00E944302CA
:1006F000CF9108950E948F020E943303FDCF1F9275
:100700000F920FB60F9211242F933F934F935F9345
:100710006F937F938F939F93AF93BF93EF93FF93C9
:10072000E0910801F0910901099588B7816088BFBF
:10073000FF91EF91BF91AF919F918F917F916F91B9
:100740005F914F913F912F910F900FBE0F901F908F
:1007500018951F920F920FB60F9211242F933F936B
:100760004F935F936F937F938F939F93AF93BF93B9
:10077000EF93FF93E0910A01F0910B01099588B77F
:10078000846088BFFF91EF91BF91AF919F918F914E
:100790007F916F915F914F913F912F910F900FBE7D
:1007A0000F901F9018951F920F920FB60F92112461
:1007B0002F933F934F935F936F937F938F939F9369
:1007C000AF93BF93EF93FF93E0910C01F0910D0174
:1007D000099588B7806488BFFF91EF91BF91AF9171
:1007E0009F918F917F916F915F914F913F912F9149
:0E07F0000F900FBE0F901F901895F894FFCF3A
:1007FE003738392F3435362A3132332D20303D2BD0
:10080E0030073006707265737320313D6F66662057
:10081E00323D6F6E09090900726F6F6D206F66664B
:10082E0009090900726F6F6D206F6E090909006961
:10083E006E707574206572726F7209090900656EAB
:10084E007465722070617373776F72640070617378
:10085E0073776F7264206572726F720909090909E4
:10086E0000313D526F6F6D31202020323D526F6F3F
:10087E006D3200636F6E74726F6C20726F6F6D20CD
:10088E003100636F6E74726F6C20726F6F6D2032F9
:02089E00000058
:00000001FF
